:1000000003308A00222B0000F6376C3ABA12301AFD
:10001000AE18E6060A003B3084008313000803197B
:100020001E280630F800F701F70B1428F80B1328E8
:100030007B30F700F70B1A28800B112808003908CD
:1000400086003A1C07103A18071487140A30BB00C0
:100050000B2087100A30BB000B2008008E30F70001
:100060003908F8003808F900FA01F808031D422899
:100070007908F800F9010830F702F808031D422852
:10008000F7014A280310F81B4928F90DF80DF7036A
:100090004228F8138A110A12712B45080319BD284A
:1000A000CD0049080319BD28CD0703185E287F300D
:1000B000CD02031CBD280319BD2862288130CD075D
:1000C0000318BD284D08F700F801F901FA014608A8
:1000D000D100D1174708D0004808CF001830CD0014
:1000E000CE014F1C8B284C08FA07031C7D28F90A07
:1000F000031D7D28F80A0319CE174B08F907031CC6
:100100008428F80A0319CE174A08C700C7174708FA
:10011000F8070318CE17CE0DF80CF90CFA0CD10C19
:10012000D00CCF0C0310CD0B70280130F70703184B
:10013000BD28F81BA228D10DFA0DF90DF80DF70313
:100140000319BD28D11FB328FA0A031DB328F90AE1
:10015000031DB328F80A031DB328F80CF90CFA0C98
:10016000F70A0319BD284608CE004A08CE06CE1F5E
:10017000BB28F817C128F813C128F701F801F901C5
:10018000FA0108003C0803198729C8004008031930
:100190008729C802031CD1287F30C8070318872984
:1001A000D7288130C802031C8729031987294808EA
:1001B000F700F801F901FA01C7013D08C600C617AA
:1001C0003E08C5003F08C4001930C8004308C402F7
:1001D0000318FA280130C5020318FA28C6020318CA
:1001E000FA28C7020318FA28C70AC60AC50A43082C
:1001F000C4072C294208C502031815290130C6027C
:1002000003181529C70203181529C70AC60A420888
:10021000C5074308C407031C2C29C50A031D2C2944
:10022000C60A031D2C29C70A2C2941088038C6029A
:1002300003182B290130C70203182B29C70A4108CC
:100240008038C6074208C507031C0929C60A031DD2
:100250000929C70A09297A14C80B2F293A2903103A
:10026000C40DC50DC60DC70D0310FA0DF90DF80D1F
:10027000C90DE628491C42290310F80CF90CFA0CA8
:10028000C90C4529F70303198729C91B6E290310D7
:10029000C40DC50DC60DC70D4308C40203185A2965
:1002A0000130C50203185A29C60203185A29C70289
:1002B000031C7D294208C502031865290130C602C6
:1002C00003186529C702031C7D2941088038C6022E
:1002D00003186E290130C702031C7D29FA0A031D89
:1002E0007D29F90A031D7D29F80A031D7D29F70AD6
:1002F00003198729F80CF90CFA0C3D08C8004108CD
:10030000C806C81F8529F8178B29F8138B29F70110
:10031000F801F901FA018A110A12982B20088400C9
:1003200083132118831745088000840A8001A00ADE
:100330000319A10A08000B08B9008B1383160317D1
:100340008C170C14000000000318CD2983120C0830
:100350007F390313BA0003170D080313BB000317FB
:100360000F080313BC003A08C5008E213B08031791
:100370008D0003133C0803178F0083168C170C1491
:100380000000000083120313B80BC729CA29831683
:100390000317CD29EC298316031783120C0D0E0DBC
:1003A0007F390313BA0003170D080313BB000317AB
:1003B0000F080313BC003A08C5008E213B08031741
:1003C0008D0003133C0803178F008D0A03198F0A51
:1003D00003100313B80B9E29B91B8B178A110A123D
:1003E000AD2B8318F6294D3084008313F701F801F3
:1003F000F901FA01CD01CE01CF01D0014C084B0427
:100400004A0449040319342A2030D1000310C50DD1
:10041000C60DC70DC80DCD0DCE0DCF0DD00D4C089E
:100420005002031D1D2A4B084F02031D1D2A4A08B6
:100430004E02031D1D2A49084D02031C2E2A49089D
:10044000CD024A08031C4A0FCE024B08031C4B0F77
:10045000CF024C08031C4C0FD0020314F70DF80D0B
:10046000F90DFA0DD10B062A4D088000840A4E08BA
:100470008000840A4F088000840A50088000080029
:100480000408BD003C08BF0003195F2A3B08C800F0
:100490003A08C7003908C6003808C500CC01CB01AE
:1004A0002030CA008230C9004D207A08BB0079088C
:1004B000BA007808B9007708B800BF0B462A3B0895
:1004C000C8003A08C7003908C6003808C500450802
:1004D000B63CC500FA014608C900C6170310C60C91
:1004E000C70CC80CFA0CF90CF80CF70CC50B6E2AEB
:1004F000C91F852AF709F809F909FA09F70A031942
:10050000F80A0319F90A0319FA0A7A08BB007908EC
:10051000BA007808B9007708B800BB1F9C2ABD0351
:10052000BD16B809B909BA09BB09B80A0319B90A4D
:100530000319BA0A0319BB0A3B30C4009A30C3003E
:10054000CA30C200C1010A30BF003C080319BD0A0D
:1005500083143830840083133B08C8003A08C7006E
:100560003908C6003808C5004408CC004308CB0051
:100570004208CA004108C900F1217808F708031DA4
:10058000D42A3C0A3F020319D42A3D080319D62A6B
:100590000F393F020319CE2A0318062BBD1B062B69
:1005A0003D1BD62A2030022B2030BD05BD1EE42A7B
:1005B000BD123C08031DBD037708BD002D30C500EA
:1005C0008E213D08F700BD013C083F02031DF22AC1
:1005D0007708BD002E30C5008E213D08F700203081
:1005E000BD0500303030BD1E022BBD123C08031D7E
:1005F000BD037708BD002D30C5008E213D08F700F2
:10060000BD013030F7077708C5008E2183104408FC
:10061000C8004308C7004208C6004108C500CC0115
:10062000CB01CA010A30C900F1217A08C400790857
:10063000C3007808C2007708C100BF0BA82A8A113E
:100640000A12BA2B03081F398300A101A0018316E7
:100650001F149F141F159F1107309C0083138710D0
:10066000071086018312A701A60101309F008E307A
:1006700083169F0083121F15243083169800903034
:100680008312980040308316990006108711871254
:1006900007162030831294008316940183120614E7
:1006A0000A30BB000B200C30B900BA011F203830D3
:1006B000B900BA011F208030B900BA011F201F19EC
:1006C0005F2B1F15A7011E08A600003083161E040D
:1006D0008312A2002608A3002308B9002208B8004C
:1006E0002E287A08C8007908C7007808C60077085D
:1006F000C500CC01CB014830CA008530C9004D206F
:100700007A08BB007908BA007808B9007708B80001
:100710007A08BF007908BE007808BD007708BC00E1
:10072000C301C030C2007F30C1008830C000C22881
:100730007A08B5007908B4007808B3007708B200E9
:10074000A1012830A000043003178D0000308F0075
:10075000031005300313B8009B294330840035088B
:10076000BB003408BA003308B9003208B8000130C1
:10077000BC00402A0D30C5008E210A30C5008E21F4
:100780008030B900BA011F20A501A4012830240738
:10079000840083132518831780080319EC2B283055
:1007A000240784008313251883170008B800B900B4
:1007B0000130BA001F200C1EDB2B283024078400D8
:1007C000831325188317000899003230BB000B20D3
:1007D000A40A0319A50AC62BB701283037078400DD
:1007E000831380080319082C06102830370784006B
:1007F0008313000893008C1DFB2B1308B6008C118B
:1008000006143608B9000130BA001F20B70AED2BD4
:100810000430B800FA30BB000B20B80B0A2C5F2B59
:02082000630073
:02400E00323F3F
:00000001FF
;PIC16F877A
;CRC=B2E6  CREATED="18-Apr-26 11:21"
